{
  "_format": "hh-sol-artifact-1",
  "contractName": "CoinFlip",
  "sourceName": "contracts/CoinFlip.sol",
  "abi": [
    {
      "inputs": [],
      "stateMutability": "nonpayable",
      "type": "constructor"
    },
    {
      "inputs": [],
      "name": "ReentrancyGuardReentrantCall",
      "type": "error"
    },
    {
      "anonymous": false,
      "inputs": [
        {
          "indexed": true,
          "internalType": "uint256",
          "name": "gameId",
          "type": "uint256"
        },
        {
          "indexed": true,
          "internalType": "address",
          "name": "player1",
          "type": "address"
        }
      ],
      "name": "GameCancelled",
      "type": "event"
    },
    {
      "anonymous": false,
      "inputs": [
        {
          "indexed": true,
          "internalType": "uint256",
          "name": "gameId",
          "type": "uint256"
        },
        {
          "indexed": true,
          "internalType": "address",
          "name": "player1",
          "type": "address"
        },
        {
          "indexed": false,
          "internalType": "uint256",
          "name": "betAmount",
          "type": "uint256"
        },
        {
          "indexed": false,
          "internalType": "bool",
          "name": "player1Choice",
          "type": "bool"
        },
        {
          "indexed": false,
          "internalType": "uint256",
          "name": "expirationTime",
          "type": "uint256"
        },
        {
          "indexed": false,
          "internalType": "address",
          "name": "referrer",
          "type": "address"
        }
      ],
      "name": "GameCreated",
      "type": "event"
    },
    {
      "anonymous": false,
      "inputs": [
        {
          "indexed": true,
          "internalType": "uint256",
          "name": "gameId",
          "type": "uint256"
        },
        {
          "indexed": true,
          "internalType": "address",
          "name": "player2",
          "type": "address"
        }
      ],
      "name": "GameJoined",
      "type": "event"
    },
    {
      "anonymous": false,
      "inputs": [
        {
          "indexed": true,
          "internalType": "uint256",
          "name": "gameId",
          "type": "uint256"
        },
        {
          "indexed": true,
          "internalType": "address",
          "name": "winner",
          "type": "address"
        },
        {
          "indexed": false,
          "internalType": "bool",
          "name": "result",
          "type": "bool"
        },
        {
          "indexed": false,
          "internalType": "uint256",
          "name": "payout",
          "type": "uint256"
        }
      ],
      "name": "GameResolved",
      "type": "event"
    },
    {
      "anonymous": false,
      "inputs": [
        {
          "indexed": true,
          "internalType": "address",
          "name": "referrer",
          "type": "address"
        },
        {
          "indexed": false,
          "internalType": "uint256",
          "name": "amount",
          "type": "uint256"
        },
        {
          "indexed": true,
          "internalType": "uint256",
          "name": "gameId",
          "type": "uint256"
        }
      ],
      "name": "ReferralReward",
      "type": "event"
    },
    {
      "inputs": [],
      "name": "HOUSE_FEE_BPS",
      "outputs": [
        {
          "internalType": "uint256",
          "name": "",
          "type": "uint256"
        }
      ],
      "stateMutability": "view",
      "type": "function"
    },
    {
      "inputs": [],
      "name": "MIN_BET",
      "outputs": [
        {
          "internalType": "uint256",
          "name": "",
          "type": "uint256"
        }
      ],
      "stateMutability": "view",
      "type": "function"
    },
    {
      "inputs": [],
      "name": "REFERRAL_FEE_BPS",
      "outputs": [
        {
          "internalType": "uint256",
          "name": "",
          "type": "uint256"
        }
      ],
      "stateMutability": "view",
      "type": "function"
    },
    {
      "inputs": [
        {
          "internalType": "uint256",
          "name": "_gameId",
          "type": "uint256"
        }
      ],
      "name": "cancelGame",
      "outputs": [],
      "stateMutability": "nonpayable",
      "type": "function"
    },
    {
      "inputs": [
        {
          "internalType": "uint256",
          "name": "_betAmount",
          "type": "uint256"
        },
        {
          "internalType": "bool",
          "name": "_choice",
          "type": "bool"
        },
        {
          "internalType": "uint256",
          "name": "_duration",
          "type": "uint256"
        },
        {
          "internalType": "address",
          "name": "_referrer",
          "type": "address"
        }
      ],
      "name": "createGame",
      "outputs": [
        {
          "internalType": "uint256",
          "name": "",
          "type": "uint256"
        }
      ],
      "stateMutability": "payable",
      "type": "function"
    },
    {
      "inputs": [
        {
          "internalType": "uint256",
          "name": "_gameId",
          "type": "uint256"
        }
      ],
      "name": "getGame",
      "outputs": [
        {
          "components": [
            {
              "internalType": "address payable",
              "name": "player1",
              "type": "address"
            },
            {
              "internalType": "address payable",
              "name": "player2",
              "type": "address"
            },
            {
              "internalType": "uint256",
              "name": "betAmount",
              "type": "uint256"
            },
            {
              "internalType": "address payable",
              "name": "winner",
              "type": "address"
            },
            {
              "internalType": "uint256",
              "name": "createTime",
              "type": "uint256"
            },
            {
              "internalType": "uint256",
              "name": "expirationTime",
              "type": "uint256"
            },
            {
              "internalType": "bool",
              "name": "player1Choice",
              "type": "bool"
            },
            {
              "internalType": "address",
              "name": "referrer",
              "type": "address"
            },
            {
              "internalType": "bool",
              "name": "resolved",
              "type": "bool"
            }
          ],
          "internalType": "struct ICoinFlip.Game",
          "name": "",
          "type": "tuple"
        }
      ],
      "stateMutability": "view",
      "type": "function"
    },
    {
      "inputs": [
        {
          "internalType": "address",
          "name": "_player",
          "type": "address"
        }
      ],
      "name": "getMyGames",
      "outputs": [
        {
          "internalType": "uint256[]",
          "name": "",
          "type": "uint256[]"
        }
      ],
      "stateMutability": "view",
      "type": "function"
    },
    {
      "inputs": [],
      "name": "getOpenGames",
      "outputs": [
        {
          "internalType": "uint256[]",
          "name": "",
          "type": "uint256[]"
        }
      ],
      "stateMutability": "view",
      "type": "function"
    },
    {
      "inputs": [
        {
          "internalType": "uint256",
          "name": "_gameId",
          "type": "uint256"
        }
      ],
      "name": "joinGame",
      "outputs": [],
      "stateMutability": "payable",
      "type": "function"
    },
    {
      "inputs": [],
      "name": "owner",
      "outputs": [
        {
          "internalType": "address payable",
          "name": "",
          "type": "address"
        }
      ],
      "stateMutability": "view",
      "type": "function"
    },
    {
      "inputs": [
        {
          "internalType": "address",
          "name": "",
          "type": "address"
        }
      ],
      "name": "referralEarnings",
      "outputs": [
        {
          "internalType": "uint256",
          "name": "",
          "type": "uint256"
        }
      ],
      "stateMutability": "view",
      "type": "function"
    },
    {
      "inputs": [
        {
          "internalType": "uint256",
          "name": "_gameId",
          "type": "uint256"
        }
      ],
      "name": "withdrawExpired",
      "outputs": [],
      "stateMutability": "nonpayable",
      "type": "function"
    },
    {
      "inputs": [],
      "name": "withdrawReferralEarnings",
      "outputs": [],
      "stateMutability": "nonpayable",
      "type": "function"
    }
  ],
  "bytecode": "0x60a0604052348015600f57600080fd5b506001600055336080526080516115ad61003b60003960008181610186015261123b01526115ad6000f3fe6080604052600436106100c25760003560e01c80638da5cb5b1161007f578063c07b528a11610059578063c07b528a146102df578063e75d7e3e1461030c578063ece002491461032e578063efaa55a01461034e57600080fd5b80638da5cb5b146101745780639d72265e146101c0578063a2f77bcc146101d557600080fd5b80630b4a1063146100c75780631594b256146100e9578063451459f2146101115780636540742f14610126578063698c40511461014157806369958ab914610154575b600080fd5b3480156100d357600080fd5b506100e76100e236600461131c565b610361565b005b3480156100f557600080fd5b506100fe600a81565b6040519081526020015b60405180910390f35b34801561011d57600080fd5b506100e761050b565b34801561013257600080fd5b506100fe66038d7ea4c6800081565b6100fe61014f366004611351565b6105a7565b34801561016057600080fd5b506100e761016f36600461131c565b6108db565b34801561018057600080fd5b506101a87f000000000000000000000000000000000000000000000000000000000000000081565b6040516001600160a01b039091168152602001610108565b3480156101cc57600080fd5b506100fe600581565b3480156101e157600080fd5b506102d26101f036600461131c565b6040805161012081018252600080825260208201819052918101829052606081018290526080810182905260a0810182905260c0810182905260e081018290526101008101919091525060009081526002602081815260409283902083516101208101855281546001600160a01b0390811682526001830154811693820193909352928101549383019390935260038301548116606083015260048301546080830152600583015460a083015260069092015460ff808216151560c084015261010080830490941660e0840152600160a81b9091041615159181019190915290565b604051610108919061139e565b3480156102eb57600080fd5b506100fe6102fa366004611436565b60036020526000908152604090205481565b34801561031857600080fd5b50610321610a6d565b6040516101089190611458565b34801561033a57600080fd5b50610321610349366004611436565b610bea565b6100e761035c36600461131c565b610d80565b610369610fba565b600081815260026020526040902080546001600160a01b031633146103c85760405162461bcd60e51b815260206004820152601060248201526f2737ba1033b0b6b29031b932b0ba37b960811b60448201526064015b60405180910390fd5b60018101546001600160a01b0316156104155760405162461bcd60e51b815260206004820152600f60248201526e11d85b59481dd85cc81a9bda5b9959608a1b60448201526064016103bf565b806005015442101561045b5760405162461bcd60e51b815260206004820152600f60248201526e139bdd08195e1c1a5c9959081e595d608a1b60448201526064016103bf565b6006810154600160a81b900460ff16156104aa5760405162461bcd60e51b815260206004820152601060248201526f105b1c9958591e481c995cdbdb1d995960821b60448201526064016103bf565b60068101805460ff60a81b1916600160a81b179055805460028201546040516001600160a01b039092169181156108fc0291906000818181858888f193505050501580156104fc573d6000803e3d6000fd5b50506105086001600055565b50565b610513610fba565b336000908152600360205260409020548061055e5760405162461bcd60e51b815260206004820152600b60248201526a4e6f206561726e696e677360a81b60448201526064016103bf565b336000818152600360205260408082208290555183156108fc0291849190818181858888f19350505050158015610599573d6000803e3d6000fd5b50506105a56001600055565b565b60006105b1610fba565b8434146105f85760405162461bcd60e51b8152602060048201526015602482015274125b98dbdc9c9958dd08185b5bdd5b9d081cd95b9d605a1b60448201526064016103bf565b66038d7ea4c6800085101561063d5760405162461bcd60e51b815260206004820152600b60248201526a42657420746f6f206c6f7760a81b60448201526064016103bf565b610e1083101580156106525750620151808311155b6106915760405162461bcd60e51b815260206004820152601060248201526f24b73b30b634b210323ab930ba34b7b760811b60448201526064016103bf565b336001600160a01b038316036106a657600091505b60018054600091826106b7836114b1565b90915550905060006106c985426114ca565b9050604051806101200160405280336001600160a01b0316815260200160006001600160a01b0316815260200188815260200160006001600160a01b031681526020014281526020018281526020018715158152602001856001600160a01b03168152602001600015158152506002600084815260200190815260200160002060008201518160000160006101000a8154816001600160a01b0302191690836001600160a01b0316021790555060208201518160010160006101000a8154816001600160a01b0302191690836001600160a01b031602179055506040820151816002015560608201518160030160006101000a8154816001600160a01b0302191690836001600160a01b031602179055506080820151816004015560a0820151816005015560c08201518160060160006101000a81548160ff02191690831515021790555060e08201518160060160016101000a8154816001600160a01b0302191690836001600160a01b031602179055506101008201518160060160156101000a81548160ff021916908315150217905550905050336001600160a01b0316827f5a4cf3444327c2114022e9b87f32bb717a07b454023d71021d117f04bf277915898985896040516108be9493929190938452911515602084015260408301526001600160a01b0316606082015260800190565b60405180910390a35090506108d36001600055565b949350505050565b6108e3610fba565b600081815260026020526040902080546001600160a01b0316331461093d5760405162461bcd60e51b815260206004820152601060248201526f2737ba1033b0b6b29031b932b0ba37b960811b60448201526064016103bf565b60018101546001600160a01b03161561098e5760405162461bcd60e51b815260206004820152601360248201527211d85b5948185b1c9958591e481a9bda5b9959606a1b60448201526064016103bf565b6006810154600160a81b900460ff16156109e25760405162461bcd60e51b815260206004820152601560248201527411d85b5948185b1c9958591e481c995cdbdb1d9959605a1b60448201526064016103bf565b60068101805460ff60a81b1916600160a81b179055805460028201546040516001600160a01b039092169181156108fc0291906000818181858888f19350505050158015610a34573d6000803e3d6000fd5b50604051339083907f58f64e02b3a6d2a3bd28b7700a0a0d6699545bcb55bf917ac0ff670f3a509efb90600090a3506105086001600055565b60606000805b600154811015610af5576000818152600260205260409020600101546001600160a01b0316158015610abe5750600081815260026020526040902060060154600160a81b900460ff16155b8015610ada575060008181526002602052604090206005015442105b15610aed5781610ae9816114b1565b9250505b600101610a73565b5060008167ffffffffffffffff811115610b1157610b116114e3565b604051908082528060200260200182016040528015610b3a578160200160208202803683370190505b5090506000805b600154811015610be1576000818152600260205260409020600101546001600160a01b0316158015610b8c5750600081815260026020526040902060060154600160a81b900460ff16155b8015610ba8575060008181526002602052604090206005015442105b15610bd95780838381518110610bc057610bc06114f9565b602090810291909101015281610bd5816114b1565b9250505b600101610b41565b50909392505050565b60606000805b600154811015610c7e576000818152600260205260409020546001600160a01b0385811691161480610c3e57506000818152600260205260409020600101546001600160a01b038581169116145b8015610c635750600081815260026020526040902060060154600160a81b900460ff16155b15610c765781610c72816114b1565b9250505b600101610bf0565b5060008167ffffffffffffffff811115610c9a57610c9a6114e3565b604051908082528060200260200182016040528015610cc3578160200160208202803683370190505b5090506000805b600154811015610d76576000818152600260205260409020546001600160a01b0387811691161480610d1857506000818152600260205260409020600101546001600160a01b038781169116145b8015610d3d5750600081815260026020526040902060060154600160a81b900460ff16155b15610d6e5780838381518110610d5557610d556114f9565b602090810291909101015281610d6a816114b1565b9250505b600101610cca565b5090949350505050565b610d88610fba565b600081815260026020526040902080546001600160a01b0316610de35760405162461bcd60e51b815260206004820152601360248201527211d85b5948191bd95cc81b9bdd08195e1a5cdd606a1b60448201526064016103bf565b60018101546001600160a01b031615610e345760405162461bcd60e51b815260206004820152601360248201527211d85b5948185b1c9958591e481a9bda5b9959606a1b60448201526064016103bf565b80546001600160a01b03163303610e845760405162461bcd60e51b815260206004820152601460248201527343616e6e6f74206a6f696e206f776e2067616d6560601b60448201526064016103bf565b80600201543414610ece5760405162461bcd60e51b8152602060048201526014602482015273125b98dbdc9c9958dd0818995d08185b5bdd5b9d60621b60448201526064016103bf565b80600501544210610f105760405162461bcd60e51b815260206004820152600c60248201526b11d85b5948195e1c1a5c995960a21b60448201526064016103bf565b6006810154600160a81b900460ff1615610f645760405162461bcd60e51b815260206004820152601560248201527411d85b5948185b1c9958591e481c995cdbdb1d9959605a1b60448201526064016103bf565b6001810180546001600160a01b0319163390811790915560405183907f45c4f9cbafe186141862608c493f28b823fde4c2142bedc3f5169961a73fdd2290600090a3610faf82610fe4565b506105086001600055565b600260005403610fdd57604051633ee5aeb560e01b815260040160405180910390fd5b6002600055565b600081815260026020526040812090610ffe60014361150f565b825460018401546002850154604080519440602086018190526bffffffffffffffffffffffff19606095861b8116928701929092529290931b90921660548401526068830191909152426088830152915060009060a80160408051601f1981840301815291905280516020909101209050600061107c600283611538565b60068501549015915060ff1615158114806110a45760018501546001600160a01b03166110b0565b84546001600160a01b03165b6003860180546001600160a01b03929092166001600160a01b031990921691909117905560068501805460ff60a81b1916600160a81b1790556002808601546000916110fc919061154c565b9050600061271061110e600a8461154c565b6111189190611563565b600688015490915060009061010090046001600160a01b0316156112145761271061114460058561154c565b61114e9190611563565b600689015461010090046001600160a01b03166000908152600360205260408120805492935083929091906111849084906114ca565b909155505060068801546040516101009091046001600160a01b0316906108fc8315029083906000818181858888f193505050501580156111c9573d6000803e3d6000fd5b5060068801546040518281528a9161010090046001600160a01b0316907f11e2632065f1504a0a08dadf5f932c16b0675fba004713f09983b752cb04787d9060200160405180910390a35b600081611221848661150f565b61122b919061150f565b6040519091506001600160a01b037f0000000000000000000000000000000000000000000000000000000000000000169084156108fc029085906000818181858888f19350505050158015611284573d6000803e3d6000fd5b5060038901546040516001600160a01b039091169082156108fc029083906000818181858888f193505050501580156112c1573d6000803e3d6000fd5b506003890154604080518815158152602081018490526001600160a01b03909216918c917fb563d6137b1ab50ba5b4741f5f1c93795bda1356a119c0fc6a78db4b2ee6c0c3910160405180910390a350505050505050505050565b60006020828403121561132e57600080fd5b5035919050565b80356001600160a01b038116811461134c57600080fd5b919050565b6000806000806080858703121561136757600080fd5b843593506020850135801515811461137e57600080fd5b92506040850135915061139360608601611335565b905092959194509250565b81516001600160a01b0390811682526020808401518216908301526040808401519083015260608084015191821690830152610120820190506080830151608083015260a083015160a083015260c08301516113fe60c084018215159052565b5060e083015161141960e08401826001600160a01b03169052565b5061010083015161142f61010084018215159052565b5092915050565b60006020828403121561144857600080fd5b61145182611335565b9392505050565b602080825282518282018190526000918401906040840190835b81811015611490578351835260209384019390920191600101611472565b509095945050505050565b634e487b7160e01b600052601160045260246000fd5b6000600182016114c3576114c361149b565b5060010190565b808201808211156114dd576114dd61149b565b92915050565b634e487b7160e01b600052604160045260246000fd5b634e487b7160e01b600052603260045260246000fd5b818103818111156114dd576114dd61149b565b634e487b7160e01b600052601260045260246000fd5b60008261154757611547611522565b500690565b80820281158282048414176114dd576114dd61149b565b60008261157257611572611522565b50049056fea2646970667358221220d3add6e8ae506b5a982c95952ffa156662e17947fb0d9ddfe1b8d9b3c128de5064736f6c634300081a0033",
  "linkReferences": {},
  "deployedLinkReferences": {}
}