{
  "_format": "hh-sol-artifact-1",
  "contractName": "CoinFlip",
  "sourceName": "contracts/CoinFlip.sol",
  "abi": [
    {
      "inputs": [],
      "stateMutability": "nonpayable",
      "type": "constructor"
    },
    {
      "inputs": [],
      "name": "ReentrancyGuardReentrantCall",
      "type": "error"
    },
    {
      "anonymous": false,
      "inputs": [
        {
          "indexed": true,
          "internalType": "address",
          "name": "owner",
          "type": "address"
        },
        {
          "indexed": false,
          "internalType": "uint256",
          "name": "amount",
          "type": "uint256"
        },
        {
          "indexed": false,
          "internalType": "uint256",
          "name": "timestamp",
          "type": "uint256"
        }
      ],
      "name": "EmergencyWithdraw",
      "type": "event"
    },
    {
      "anonymous": false,
      "inputs": [
        {
          "indexed": true,
          "internalType": "uint256",
          "name": "gameId",
          "type": "uint256"
        },
        {
          "indexed": true,
          "internalType": "address",
          "name": "player1",
          "type": "address"
        },
        {
          "indexed": false,
          "internalType": "uint256",
          "name": "timestamp",
          "type": "uint256"
        }
      ],
      "name": "GameCancelled",
      "type": "event"
    },
    {
      "anonymous": false,
      "inputs": [
        {
          "indexed": true,
          "internalType": "uint256",
          "name": "gameId",
          "type": "uint256"
        },
        {
          "indexed": true,
          "internalType": "address",
          "name": "player1",
          "type": "address"
        },
        {
          "indexed": false,
          "internalType": "uint256",
          "name": "betAmount",
          "type": "uint256"
        },
        {
          "indexed": false,
          "internalType": "bool",
          "name": "player1Choice",
          "type": "bool"
        },
        {
          "indexed": false,
          "internalType": "uint256",
          "name": "expirationTime",
          "type": "uint256"
        },
        {
          "indexed": false,
          "internalType": "address",
          "name": "referrer",
          "type": "address"
        },
        {
          "indexed": false,
          "internalType": "uint256",
          "name": "timestamp",
          "type": "uint256"
        }
      ],
      "name": "GameCreated",
      "type": "event"
    },
    {
      "anonymous": false,
      "inputs": [
        {
          "indexed": true,
          "internalType": "uint256",
          "name": "gameId",
          "type": "uint256"
        },
        {
          "indexed": false,
          "internalType": "uint256",
          "name": "timestamp",
          "type": "uint256"
        }
      ],
      "name": "GameExpired",
      "type": "event"
    },
    {
      "anonymous": false,
      "inputs": [
        {
          "indexed": true,
          "internalType": "uint256",
          "name": "gameId",
          "type": "uint256"
        },
        {
          "indexed": true,
          "internalType": "address",
          "name": "player2",
          "type": "address"
        },
        {
          "indexed": false,
          "internalType": "uint256",
          "name": "timestamp",
          "type": "uint256"
        }
      ],
      "name": "GameJoined",
      "type": "event"
    },
    {
      "anonymous": false,
      "inputs": [
        {
          "indexed": true,
          "internalType": "uint256",
          "name": "gameId",
          "type": "uint256"
        },
        {
          "indexed": true,
          "internalType": "address",
          "name": "winner",
          "type": "address"
        },
        {
          "indexed": false,
          "internalType": "bool",
          "name": "result",
          "type": "bool"
        },
        {
          "indexed": false,
          "internalType": "uint256",
          "name": "payout",
          "type": "uint256"
        },
        {
          "indexed": false,
          "internalType": "uint256",
          "name": "timestamp",
          "type": "uint256"
        }
      ],
      "name": "GameResolved",
      "type": "event"
    },
    {
      "anonymous": false,
      "inputs": [
        {
          "indexed": false,
          "internalType": "uint256",
          "name": "timestamp",
          "type": "uint256"
        }
      ],
      "name": "Paused",
      "type": "event"
    },
    {
      "anonymous": false,
      "inputs": [
        {
          "indexed": true,
          "internalType": "address",
          "name": "referrer",
          "type": "address"
        },
        {
          "indexed": false,
          "internalType": "uint256",
          "name": "amount",
          "type": "uint256"
        },
        {
          "indexed": true,
          "internalType": "uint256",
          "name": "gameId",
          "type": "uint256"
        },
        {
          "indexed": false,
          "internalType": "uint256",
          "name": "timestamp",
          "type": "uint256"
        }
      ],
      "name": "ReferralReward",
      "type": "event"
    },
    {
      "anonymous": false,
      "inputs": [
        {
          "indexed": true,
          "internalType": "address",
          "name": "referrer",
          "type": "address"
        },
        {
          "indexed": false,
          "internalType": "uint256",
          "name": "amount",
          "type": "uint256"
        },
        {
          "indexed": false,
          "internalType": "uint256",
          "name": "timestamp",
          "type": "uint256"
        }
      ],
      "name": "ReferralWithdrawn",
      "type": "event"
    },
    {
      "anonymous": false,
      "inputs": [
        {
          "indexed": false,
          "internalType": "uint256",
          "name": "timestamp",
          "type": "uint256"
        }
      ],
      "name": "Unpaused",
      "type": "event"
    },
    {
      "inputs": [],
      "name": "HOUSE_FEE_BPS",
      "outputs": [
        {
          "internalType": "uint256",
          "name": "",
          "type": "uint256"
        }
      ],
      "stateMutability": "view",
      "type": "function"
    },
    {
      "inputs": [],
      "name": "MIN_BET",
      "outputs": [
        {
          "internalType": "uint256",
          "name": "",
          "type": "uint256"
        }
      ],
      "stateMutability": "view",
      "type": "function"
    },
    {
      "inputs": [],
      "name": "REFERRAL_FEE_BPS",
      "outputs": [
        {
          "internalType": "uint256",
          "name": "",
          "type": "uint256"
        }
      ],
      "stateMutability": "view",
      "type": "function"
    },
    {
      "inputs": [
        {
          "internalType": "uint256",
          "name": "_gameId",
          "type": "uint256"
        }
      ],
      "name": "cancelGame",
      "outputs": [],
      "stateMutability": "nonpayable",
      "type": "function"
    },
    {
      "inputs": [
        {
          "internalType": "uint256",
          "name": "_betAmount",
          "type": "uint256"
        },
        {
          "internalType": "bool",
          "name": "_choice",
          "type": "bool"
        },
        {
          "internalType": "uint256",
          "name": "_duration",
          "type": "uint256"
        },
        {
          "internalType": "address",
          "name": "_referrer",
          "type": "address"
        }
      ],
      "name": "createGame",
      "outputs": [
        {
          "internalType": "uint256",
          "name": "",
          "type": "uint256"
        }
      ],
      "stateMutability": "payable",
      "type": "function"
    },
    {
      "inputs": [],
      "name": "emergencyWithdraw",
      "outputs": [],
      "stateMutability": "nonpayable",
      "type": "function"
    },
    {
      "inputs": [
        {
          "internalType": "uint256",
          "name": "timeWindow",
          "type": "uint256"
        }
      ],
      "name": "getExpiringGames",
      "outputs": [
        {
          "components": [
            {
              "internalType": "address payable",
              "name": "player1",
              "type": "address"
            },
            {
              "internalType": "address payable",
              "name": "player2",
              "type": "address"
            },
            {
              "internalType": "uint256",
              "name": "betAmount",
              "type": "uint256"
            },
            {
              "internalType": "address payable",
              "name": "winner",
              "type": "address"
            },
            {
              "internalType": "uint256",
              "name": "createTime",
              "type": "uint256"
            },
            {
              "internalType": "uint256",
              "name": "expirationTime",
              "type": "uint256"
            },
            {
              "internalType": "bool",
              "name": "player1Choice",
              "type": "bool"
            },
            {
              "internalType": "address",
              "name": "referrer",
              "type": "address"
            },
            {
              "internalType": "bool",
              "name": "resolved",
              "type": "bool"
            }
          ],
          "internalType": "struct ICoinFlip.Game[]",
          "name": "",
          "type": "tuple[]"
        }
      ],
      "stateMutability": "view",
      "type": "function"
    },
    {
      "inputs": [
        {
          "internalType": "uint256",
          "name": "_gameId",
          "type": "uint256"
        }
      ],
      "name": "getGame",
      "outputs": [
        {
          "components": [
            {
              "internalType": "address payable",
              "name": "player1",
              "type": "address"
            },
            {
              "internalType": "address payable",
              "name": "player2",
              "type": "address"
            },
            {
              "internalType": "uint256",
              "name": "betAmount",
              "type": "uint256"
            },
            {
              "internalType": "address payable",
              "name": "winner",
              "type": "address"
            },
            {
              "internalType": "uint256",
              "name": "createTime",
              "type": "uint256"
            },
            {
              "internalType": "uint256",
              "name": "expirationTime",
              "type": "uint256"
            },
            {
              "internalType": "bool",
              "name": "player1Choice",
              "type": "bool"
            },
            {
              "internalType": "address",
              "name": "referrer",
              "type": "address"
            },
            {
              "internalType": "bool",
              "name": "resolved",
              "type": "bool"
            }
          ],
          "internalType": "struct ICoinFlip.Game",
          "name": "",
          "type": "tuple"
        }
      ],
      "stateMutability": "view",
      "type": "function"
    },
    {
      "inputs": [
        {
          "internalType": "uint256[]",
          "name": "_gameIds",
          "type": "uint256[]"
        }
      ],
      "name": "getGamesBatch",
      "outputs": [
        {
          "components": [
            {
              "internalType": "address payable",
              "name": "player1",
              "type": "address"
            },
            {
              "internalType": "address payable",
              "name": "player2",
              "type": "address"
            },
            {
              "internalType": "uint256",
              "name": "betAmount",
              "type": "uint256"
            },
            {
              "internalType": "address payable",
              "name": "winner",
              "type": "address"
            },
            {
              "internalType": "uint256",
              "name": "createTime",
              "type": "uint256"
            },
            {
              "internalType": "uint256",
              "name": "expirationTime",
              "type": "uint256"
            },
            {
              "internalType": "bool",
              "name": "player1Choice",
              "type": "bool"
            },
            {
              "internalType": "address",
              "name": "referrer",
              "type": "address"
            },
            {
              "internalType": "bool",
              "name": "resolved",
              "type": "bool"
            }
          ],
          "internalType": "struct ICoinFlip.Game[]",
          "name": "",
          "type": "tuple[]"
        }
      ],
      "stateMutability": "view",
      "type": "function"
    },
    {
      "inputs": [
        {
          "internalType": "uint256",
          "name": "minBet",
          "type": "uint256"
        },
        {
          "internalType": "uint256",
          "name": "maxBet",
          "type": "uint256"
        },
        {
          "internalType": "uint256",
          "name": "limit",
          "type": "uint256"
        }
      ],
      "name": "getGamesByBetRange",
      "outputs": [
        {
          "components": [
            {
              "internalType": "address payable",
              "name": "player1",
              "type": "address"
            },
            {
              "internalType": "address payable",
              "name": "player2",
              "type": "address"
            },
            {
              "internalType": "uint256",
              "name": "betAmount",
              "type": "uint256"
            },
            {
              "internalType": "address payable",
              "name": "winner",
              "type": "address"
            },
            {
              "internalType": "uint256",
              "name": "createTime",
              "type": "uint256"
            },
            {
              "internalType": "uint256",
              "name": "expirationTime",
              "type": "uint256"
            },
            {
              "internalType": "bool",
              "name": "player1Choice",
              "type": "bool"
            },
            {
              "internalType": "address",
              "name": "referrer",
              "type": "address"
            },
            {
              "internalType": "bool",
              "name": "resolved",
              "type": "bool"
            }
          ],
          "internalType": "struct ICoinFlip.Game[]",
          "name": "",
          "type": "tuple[]"
        }
      ],
      "stateMutability": "view",
      "type": "function"
    },
    {
      "inputs": [
        {
          "internalType": "address",
          "name": "_player",
          "type": "address"
        }
      ],
      "name": "getMyGames",
      "outputs": [
        {
          "internalType": "uint256[]",
          "name": "",
          "type": "uint256[]"
        }
      ],
      "stateMutability": "view",
      "type": "function"
    },
    {
      "inputs": [
        {
          "internalType": "address",
          "name": "_player",
          "type": "address"
        },
        {
          "internalType": "uint256",
          "name": "limit",
          "type": "uint256"
        },
        {
          "internalType": "uint256",
          "name": "offset",
          "type": "uint256"
        }
      ],
      "name": "getMyGamesWithData",
      "outputs": [
        {
          "components": [
            {
              "internalType": "address payable",
              "name": "player1",
              "type": "address"
            },
            {
              "internalType": "address payable",
              "name": "player2",
              "type": "address"
            },
            {
              "internalType": "uint256",
              "name": "betAmount",
              "type": "uint256"
            },
            {
              "internalType": "address payable",
              "name": "winner",
              "type": "address"
            },
            {
              "internalType": "uint256",
              "name": "createTime",
              "type": "uint256"
            },
            {
              "internalType": "uint256",
              "name": "expirationTime",
              "type": "uint256"
            },
            {
              "internalType": "bool",
              "name": "player1Choice",
              "type": "bool"
            },
            {
              "internalType": "address",
              "name": "referrer",
              "type": "address"
            },
            {
              "internalType": "bool",
              "name": "resolved",
              "type": "bool"
            }
          ],
          "internalType": "struct ICoinFlip.Game[]",
          "name": "gamesData",
          "type": "tuple[]"
        },
        {
          "internalType": "uint256",
          "name": "totalCount",
          "type": "uint256"
        }
      ],
      "stateMutability": "view",
      "type": "function"
    },
    {
      "inputs": [],
      "name": "getOpenGames",
      "outputs": [
        {
          "internalType": "uint256[]",
          "name": "",
          "type": "uint256[]"
        }
      ],
      "stateMutability": "view",
      "type": "function"
    },
    {
      "inputs": [
        {
          "internalType": "uint256",
          "name": "limit",
          "type": "uint256"
        },
        {
          "internalType": "uint256",
          "name": "offset",
          "type": "uint256"
        }
      ],
      "name": "getOpenGamesWithData",
      "outputs": [
        {
          "components": [
            {
              "internalType": "address payable",
              "name": "player1",
              "type": "address"
            },
            {
              "internalType": "address payable",
              "name": "player2",
              "type": "address"
            },
            {
              "internalType": "uint256",
              "name": "betAmount",
              "type": "uint256"
            },
            {
              "internalType": "address payable",
              "name": "winner",
              "type": "address"
            },
            {
              "internalType": "uint256",
              "name": "createTime",
              "type": "uint256"
            },
            {
              "internalType": "uint256",
              "name": "expirationTime",
              "type": "uint256"
            },
            {
              "internalType": "bool",
              "name": "player1Choice",
              "type": "bool"
            },
            {
              "internalType": "address",
              "name": "referrer",
              "type": "address"
            },
            {
              "internalType": "bool",
              "name": "resolved",
              "type": "bool"
            }
          ],
          "internalType": "struct ICoinFlip.Game[]",
          "name": "gamesData",
          "type": "tuple[]"
        },
        {
          "internalType": "uint256",
          "name": "totalCount",
          "type": "uint256"
        }
      ],
      "stateMutability": "view",
      "type": "function"
    },
    {
      "inputs": [
        {
          "internalType": "address",
          "name": "_player",
          "type": "address"
        }
      ],
      "name": "getPlayerStats",
      "outputs": [
        {
          "components": [
            {
              "internalType": "uint256",
              "name": "gamesCreated",
              "type": "uint256"
            },
            {
              "internalType": "uint256",
              "name": "gamesJoined",
              "type": "uint256"
            },
            {
              "internalType": "uint256",
              "name": "gamesWon",
              "type": "uint256"
            },
            {
              "internalType": "uint256",
              "name": "gamesLost",
              "type": "uint256"
            },
            {
              "internalType": "uint256",
              "name": "totalVolume",
              "type": "uint256"
            },
            {
              "internalType": "uint256",
              "name": "totalWon",
              "type": "uint256"
            }
          ],
          "internalType": "struct ICoinFlip.PlayerStats",
          "name": "",
          "type": "tuple"
        }
      ],
      "stateMutability": "view",
      "type": "function"
    },
    {
      "inputs": [],
      "name": "getProtocolStats",
      "outputs": [
        {
          "components": [
            {
              "internalType": "uint256",
              "name": "totalGamesCreated",
              "type": "uint256"
            },
            {
              "internalType": "uint256",
              "name": "totalGamesResolved",
              "type": "uint256"
            },
            {
              "internalType": "uint256",
              "name": "totalVolume",
              "type": "uint256"
            },
            {
              "internalType": "uint256",
              "name": "totalPlayers",
              "type": "uint256"
            },
            {
              "internalType": "uint256",
              "name": "activeGames",
              "type": "uint256"
            }
          ],
          "internalType": "struct ICoinFlip.ProtocolStats",
          "name": "",
          "type": "tuple"
        }
      ],
      "stateMutability": "view",
      "type": "function"
    },
    {
      "inputs": [
        {
          "internalType": "uint256",
          "name": "count",
          "type": "uint256"
        }
      ],
      "name": "getRecentGames",
      "outputs": [
        {
          "components": [
            {
              "internalType": "address payable",
              "name": "player1",
              "type": "address"
            },
            {
              "internalType": "address payable",
              "name": "player2",
              "type": "address"
            },
            {
              "internalType": "uint256",
              "name": "betAmount",
              "type": "uint256"
            },
            {
              "internalType": "address payable",
              "name": "winner",
              "type": "address"
            },
            {
              "internalType": "uint256",
              "name": "createTime",
              "type": "uint256"
            },
            {
              "internalType": "uint256",
              "name": "expirationTime",
              "type": "uint256"
            },
            {
              "internalType": "bool",
              "name": "player1Choice",
              "type": "bool"
            },
            {
              "internalType": "address",
              "name": "referrer",
              "type": "address"
            },
            {
              "internalType": "bool",
              "name": "resolved",
              "type": "bool"
            }
          ],
          "internalType": "struct ICoinFlip.Game[]",
          "name": "",
          "type": "tuple[]"
        }
      ],
      "stateMutability": "view",
      "type": "function"
    },
    {
      "inputs": [
        {
          "internalType": "address",
          "name": "_referrer",
          "type": "address"
        }
      ],
      "name": "getReferralStats",
      "outputs": [
        {
          "components": [
            {
              "internalType": "uint256",
              "name": "totalEarned",
              "type": "uint256"
            },
            {
              "internalType": "uint256",
              "name": "gamesReferred",
              "type": "uint256"
            }
          ],
          "internalType": "struct ICoinFlip.ReferralStats",
          "name": "",
          "type": "tuple"
        }
      ],
      "stateMutability": "view",
      "type": "function"
    },
    {
      "inputs": [
        {
          "internalType": "uint256",
          "name": "limit",
          "type": "uint256"
        }
      ],
      "name": "getTopPlayers",
      "outputs": [
        {
          "internalType": "address[]",
          "name": "",
          "type": "address[]"
        },
        {
          "internalType": "uint256[]",
          "name": "",
          "type": "uint256[]"
        }
      ],
      "stateMutability": "view",
      "type": "function"
    },
    {
      "inputs": [
        {
          "internalType": "uint256",
          "name": "_gameId",
          "type": "uint256"
        }
      ],
      "name": "joinGame",
      "outputs": [],
      "stateMutability": "payable",
      "type": "function"
    },
    {
      "inputs": [],
      "name": "owner",
      "outputs": [
        {
          "internalType": "address payable",
          "name": "",
          "type": "address"
        }
      ],
      "stateMutability": "view",
      "type": "function"
    },
    {
      "inputs": [],
      "name": "pause",
      "outputs": [],
      "stateMutability": "nonpayable",
      "type": "function"
    },
    {
      "inputs": [],
      "name": "paused",
      "outputs": [
        {
          "internalType": "bool",
          "name": "",
          "type": "bool"
        }
      ],
      "stateMutability": "view",
      "type": "function"
    },
    {
      "inputs": [
        {
          "internalType": "address",
          "name": "",
          "type": "address"
        }
      ],
      "name": "playerStats",
      "outputs": [
        {
          "internalType": "uint256",
          "name": "gamesCreated",
          "type": "uint256"
        },
        {
          "internalType": "uint256",
          "name": "gamesJoined",
          "type": "uint256"
        },
        {
          "internalType": "uint256",
          "name": "gamesWon",
          "type": "uint256"
        },
        {
          "internalType": "uint256",
          "name": "gamesLost",
          "type": "uint256"
        },
        {
          "internalType": "uint256",
          "name": "totalVolume",
          "type": "uint256"
        },
        {
          "internalType": "uint256",
          "name": "totalWon",
          "type": "uint256"
        }
      ],
      "stateMutability": "view",
      "type": "function"
    },
    {
      "inputs": [
        {
          "internalType": "address",
          "name": "",
          "type": "address"
        }
      ],
      "name": "referralEarnings",
      "outputs": [
        {
          "internalType": "uint256",
          "name": "",
          "type": "uint256"
        }
      ],
      "stateMutability": "view",
      "type": "function"
    },
    {
      "inputs": [
        {
          "internalType": "address",
          "name": "",
          "type": "address"
        }
      ],
      "name": "referralStats",
      "outputs": [
        {
          "internalType": "uint256",
          "name": "totalEarned",
          "type": "uint256"
        },
        {
          "internalType": "uint256",
          "name": "gamesReferred",
          "type": "uint256"
        }
      ],
      "stateMutability": "view",
      "type": "function"
    },
    {
      "inputs": [],
      "name": "totalGamesCreated",
      "outputs": [
        {
          "internalType": "uint256",
          "name": "",
          "type": "uint256"
        }
      ],
      "stateMutability": "view",
      "type": "function"
    },
    {
      "inputs": [],
      "name": "totalGamesResolved",
      "outputs": [
        {
          "internalType": "uint256",
          "name": "",
          "type": "uint256"
        }
      ],
      "stateMutability": "view",
      "type": "function"
    },
    {
      "inputs": [],
      "name": "totalPlayers",
      "outputs": [
        {
          "internalType": "uint256",
          "name": "",
          "type": "uint256"
        }
      ],
      "stateMutability": "view",
      "type": "function"
    },
    {
      "inputs": [],
      "name": "totalVolume",
      "outputs": [
        {
          "internalType": "uint256",
          "name": "",
          "type": "uint256"
        }
      ],
      "stateMutability": "view",
      "type": "function"
    },
    {
      "inputs": [],
      "name": "unpause",
      "outputs": [],
      "stateMutability": "nonpayable",
      "type": "function"
    },
    {
      "inputs": [
        {
          "internalType": "uint256",
          "name": "_gameId",
          "type": "uint256"
        }
      ],
      "name": "withdrawExpired",
      "outputs": [],
      "stateMutability": "nonpayable",
      "type": "function"
    },
    {
      "inputs": [],
      "name": "withdrawReferralEarnings",
      "outputs": [],
      "stateMutability": "nonpayable",
      "type": "function"
    }
  ],
  "bytecode": "0x60a0604052348015600f57600080fd5b50600160005533608052600f805460ff191690556080516132166100686000396000818161052401528181610c80015281816117f101528181611c1b01528181611c6701528181611cc80152612c2601526132166000f3fe6080604052600436106101ee5760003560e01c80638456cb591161010d578063cdafbbb6116100a0578063ece002491161006f578063ece0024914610705578063efaa55a014610725578063f25d72da14610738578063f60cdcf614610758578063ff4cb3721461076e57600080fd5b8063cdafbbb614610631578063db2e21bc146106ae578063e14ef57a146106c3578063e75d7e3e146106e357600080fd5b8063a2f77bcc116100dc578063a2f77bcc14610589578063ba3c0067146105b6578063c07b528a146105e4578063c5a2c70c1461061157600080fd5b80638456cb59146104fd5780638da5cb5b146105125780638dbb15bb1461055e5780639d72265e1461057457600080fd5b80634fd66eae11610185578063698c405111610154578063698c40511461044557806369958ab914610458578063771aceef146104785780637f3d370b146104cf57600080fd5b80634fd66eae1461037e5780635c975abb146103ea5780635f81a57c146104145780636540742f1461042a57600080fd5b806321bade13116101c157806321bade131461028e5780633a0e34091461030b5780633f4ba83a14610354578063451459f21461036957600080fd5b80630b4a1063146101f3578063109df1ad14610215578063122b477b1461024b5780631594b2561461026b575b600080fd5b3480156101ff57600080fd5b5061021361020e366004612d5c565b610784565b005b34801561022157600080fd5b50610235610230366004612d75565b610971565b6040516102429190612ec4565b60405180910390f35b34801561025757600080fd5b50610235610266366004612d5c565b610aba565b34801561027757600080fd5b50610280600a81565b604051908152602001610242565b34801561029a57600080fd5b506102f06102a9366004612efa565b6040805180820190915260008082526020820152506001600160a01b03166000908152600e6020908152604091829020825180840190935280548352600101549082015290565b60408051825181526020928301519281019290925201610242565b34801561031757600080fd5b5061033f610326366004612efa565b600e602052600090815260409020805460019091015482565b60408051928352602083019190915201610242565b34801561036057600080fd5b50610213610c75565b34801561037557600080fd5b50610213610cfd565b34801561038a57600080fd5b5061039e610399366004612efa565b610dd3565b6040516102429190600060c082019050825182526020830151602083015260408301516040830152606083015160608301526080830151608083015260a083015160a083015292915050565b3480156103f657600080fd5b50600f546104049060ff1681565b6040519015158152602001610242565b34801561042057600080fd5b50610280600a5481565b34801561043657600080fd5b5061028066038d7ea4c6800081565b610280610453366004612f15565b610e6e565b34801561046457600080fd5b50610213610473366004612d5c565b611361565b34801561048457600080fd5b5061048d611506565b6040516102429190600060a082019050825182526020830151602083015260408301516040830152606083015160608301526080830151608083015292915050565b3480156104db57600080fd5b506104ef6104ea366004612f62565b61156d565b604051610242929190612f95565b34801561050957600080fd5b506102136117e6565b34801561051e57600080fd5b506105467f000000000000000000000000000000000000000000000000000000000000000081565b6040516001600160a01b039091168152602001610242565b34801561056a57600080fd5b5061028060085481565b34801561058057600080fd5b50610280600581565b34801561059557600080fd5b506105a96105a4366004612d5c565b61186d565b6040516102429190612fb7565b3480156105c257600080fd5b506105d66105d1366004612d5c565b61190e565b604051610242929190612ff8565b3480156105f057600080fd5b506102806105ff366004612efa565b60036020526000908152604090205481565b34801561061d57600080fd5b5061023561062c366004612d5c565b6119a9565b34801561063d57600080fd5b5061068161064c366004612efa565b600d60205260009081526040902080546001820154600283015460038401546004850154600590950154939492939192909186565b604080519687526020870195909552938501929092526060840152608083015260a082015260c001610242565b3480156106ba57600080fd5b50610213611c10565b3480156106cf57600080fd5b506104ef6106de366004613059565b611d17565b3480156106ef57600080fd5b506106f8611fb3565b604051610242919061307b565b34801561071157600080fd5b506106f8610720366004612efa565b612124565b610213610733366004612d5c565b612266565b34801561074457600080fd5b5061023561075336600461308e565b612593565b34801561076457600080fd5b50610280600b5481565b34801561077a57600080fd5b5061028060095481565b61078c612823565b600081815260026020526040902080546001600160a01b031633146107eb5760405162461bcd60e51b815260206004820152601060248201526f2737ba1033b0b6b29031b932b0ba37b960811b60448201526064015b60405180910390fd5b60018101546001600160a01b0316156108385760405162461bcd60e51b815260206004820152600f60248201526e11d85b59481dd85cc81a9bda5b9959608a1b60448201526064016107e2565b806005015442101561087e5760405162461bcd60e51b815260206004820152600f60248201526e139bdd08195e1c1a5c9959081e595d608a1b60448201526064016107e2565b6006810154600160a81b900460ff16156108cd5760405162461bcd60e51b815260206004820152601060248201526f105b1c9958591e481c995cdbdb1d995960821b60448201526064016107e2565b60068101805460ff60a81b1916600160a81b1790556108eb8261284d565b805460028201546040516001600160a01b039092169181156108fc0291906000818181858888f19350505050158015610928573d6000803e3d6000fd5b50817fa72860103f540f00e7d5c44ff9ea4cdb6cf0361b63e542d7a657c4c1154100de4260405161095b91815260200190565b60405180910390a25061096e6001600055565b50565b606060008267ffffffffffffffff81111561098e5761098e6130ba565b6040519080825280602002602001820160405280156109c757816020015b6109b4612d10565b8152602001906001900390816109ac5790505b50905060005b83811015610ab057600260008686848181106109eb576109eb6130d0565b6020908102929092013583525081810192909252604090810160002081516101208101835281546001600160a01b039081168252600183015481169482019490945260028201549281019290925260038101548316606083015260048101546080830152600581015460a08301526006015460ff808216151560c084015261010080830490941660e0840152600160a81b909104161515918101919091528251839083908110610a9d57610a9d6130d0565b60209081029190910101526001016109cd565b5090505b92915050565b6060811580610ac95750600154155b15610b06576040805160008082526020820190925290610aff565b610aec612d10565b815260200190600190039081610ae45790505b5092915050565b60006001548311610b175782610b1b565b6001545b905060008167ffffffffffffffff811115610b3857610b386130ba565b604051908082528060200260200182016040528015610b7157816020015b610b5e612d10565b815260200190600190039081610b565790505b506001549091506000905b600081118015610b8b57508382105b15610c6b5760026000610b9f6001846130fc565b8152602080820192909252604090810160002081516101208101835281546001600160a01b039081168252600183015481169482019490945260028201549281019290925260038101548316606083015260048101546080830152600581015460a08301526006015460ff808216151560c084015261010080830490941660e0840152600160a81b909104161515918101919091528351849084908110610c4857610c486130d0565b602090810291909101015260019091019080610c638161310f565b915050610b7c565b5090949350505050565b336001600160a01b037f00000000000000000000000000000000000000000000000000000000000000001614610cbd5760405162461bcd60e51b81526004016107e290613126565b600f805460ff191690556040514281527f9dd715fed52c25e642f97653bb4c4339ad98fe6d6e130348be82ae5d86383a8c906020015b60405180910390a1565b610d05612823565b3360009081526003602052604090205480610d505760405162461bcd60e51b815260206004820152600b60248201526a4e6f206561726e696e677360a81b60448201526064016107e2565b336000818152600360205260408082208290555183156108fc0291849190818181858888f19350505050158015610d8b573d6000803e3d6000fd5b506040805182815242602082015233917fa566168e45b298bfec3a8bf78a9ee700a1df1d4120966da7343c66f06154c603910160405180910390a250610dd16001600055565b565b610e0c6040518060c001604052806000815260200160008152602001600081526020016000815260200160008152602001600081525090565b506001600160a01b03166000908152600d6020908152604091829020825160c08101845281548152600182015492810192909252600281015492820192909252600382015460608201526004820154608082015260059091015460a082015290565b6000610e78612823565b600f5460ff1615610ec05760405162461bcd60e51b815260206004820152601260248201527110dbdb9d1c9858dd081a5cc81c185d5cd95960721b60448201526064016107e2565b843414610f075760405162461bcd60e51b8152602060048201526015602482015274125b98dbdc9c9958dd08185b5bdd5b9d081cd95b9d605a1b60448201526064016107e2565b66038d7ea4c68000851015610f4c5760405162461bcd60e51b815260206004820152600b60248201526a42657420746f6f206c6f7760a81b60448201526064016107e2565b610e108310158015610f615750620151808311155b610fa05760405162461bcd60e51b815260206004820152601060248201526f24b73b30b634b210323ab930ba34b7b760811b60448201526064016107e2565b6001600160a01b038216331480610fbe57506001600160a01b038216155b15610fc857600091505b600180548082018255600880549092019091556000610fe78542613149565b9050604051806101200160405280336001600160a01b0316815260200160006001600160a01b0316815260200188815260200160006001600160a01b031681526020014281526020018281526020018715158152602001856001600160a01b03168152602001600015158152506002600084815260200190815260200160002060008201518160000160006101000a8154816001600160a01b0302191690836001600160a01b0316021790555060208201518160010160006101000a8154816001600160a01b0302191690836001600160a01b031602179055506040820151816002015560608201518160030160006101000a8154816001600160a01b0302191690836001600160a01b031602179055506080820151816004015560a0820151816005015560c08201518160060160006101000a81548160ff02191690831515021790555060e08201518160060160016101000a8154816001600160a01b0302191690836001600160a01b031602179055506101008201518160060160156101000a81548160ff0219169083151502179055509050506004805490506005600084815260200190815260200160002081905550600482908060018154018082558091505060019003906000526020600020016000909190919091505560066000336001600160a01b03166001600160a01b031681526020019081526020016000208054905060076000336001600160a01b03166001600160a01b0316815260200190815260200160002060008481526020019081526020016000208190555060066000336001600160a01b03166001600160a01b03168152602001908152602001600020829080600181540180825580915050600190039060005260206000200160009091909190915055600c6000336001600160a01b03166001600160a01b0316815260200190815260200160002060009054906101000a900460ff166112d057336000908152600c60205260409020805460ff19166001908117909155600b805490910190555b336000818152600d60209081526040918290208054600101815560040180548b01905581518a8152891515918101919091529081018390526001600160a01b038616606082015242608082015283907f402f0050a9eaaef7ce6d03150258b686d4e12cba57aac429a9d7928fdee9a5849060a00160405180910390a35090506113596001600055565b949350505050565b611369612823565b600081815260026020526040902080546001600160a01b031633146113c35760405162461bcd60e51b815260206004820152601060248201526f2737ba1033b0b6b29031b932b0ba37b960811b60448201526064016107e2565b60018101546001600160a01b0316156114145760405162461bcd60e51b815260206004820152601360248201527211d85b5948185b1c9958591e481a9bda5b9959606a1b60448201526064016107e2565b6006810154600160a81b900460ff16156114685760405162461bcd60e51b815260206004820152601560248201527411d85b5948185b1c9958591e481c995cdbdb1d9959605a1b60448201526064016107e2565b60068101805460ff60a81b1916600160a81b1790556114868261284d565b805460028201546040516001600160a01b039092169181156108fc0291906000818181858888f193505050501580156114c3573d6000803e3d6000fd5b50604051428152339083907fd88a9e15dd8040e04f912676ceaed95b54dd3f1b409a501d0df7679355c099199060200160405180910390a35061096e6001600055565b6115386040518060a0016040528060008152602001600081526020016000815260200160008152602001600081525090565b506040805160a08101825260085481526009546020820152600a5491810191909152600b546060820152600454608082015290565b6001600160a01b03831660009081526006602052604081206060919081805b82548110156115e857600260008483815481106115ab576115ab6130d0565b9060005260206000200154815260200190815260200160002060060160159054906101000a900460ff166115e0576001909101905b60010161158c565b5080925080851061162e576040805160008082526020820190925290611624565b611611612d10565b8152602001906001900390816116095790505b50935050506117de565b600061163a86836130fc565b9050868111156116475750855b8067ffffffffffffffff811115611660576116606130ba565b60405190808252806020026020018201604052801561169957816020015b611686612d10565b81526020019060019003908161167e5790505b50945060008060005b8554811080156116b157508382105b156117d75760008682815481106116ca576116ca6130d0565b6000918252602080832090910154808352600290915260409091206006015490915060ff600160a81b909104166117c4578984106117bd5760008181526002602081815260409283902083516101208101855281546001600160a01b0390811682526001830154811693820193909352928101549383019390935260038301548116606083015260048301546080830152600583015460a083015260069092015460ff808216151560c084015261010080830490941660e0840152600160a81b9091041615159181019190915289518a90859081106117ab576117ab6130d0565b60209081029190910101526001909201915b6001909301925b50806117cf8161315c565b9150506116a2565b5050505050505b935093915050565b336001600160a01b037f0000000000000000000000000000000000000000000000000000000000000000161461182e5760405162461bcd60e51b81526004016107e290613126565b600f805460ff191660011790556040517f32fb7c9891bc4f963c7de9f1186d2a7755c7d6e9f4604dabe1d8bb3027c2f49e90610cf39042815260200190565b611875612d10565b5060009081526002602081815260409283902083516101208101855281546001600160a01b0390811682526001830154811693820193909352928101549383019390935260038301548116606083015260048301546080830152600583015460a083015260069092015460ff808216151560c084015261010080830490941660e0840152600160a81b9091041615159181019190915290565b60608060008367ffffffffffffffff81111561192c5761192c6130ba565b604051908082528060200260200182016040528015611955578160200160208202803683370190505b50905060008467ffffffffffffffff811115611973576119736130ba565b60405190808252806020026020018201604052801561199c578160200160208202803683370190505b5091959194509092505050565b606060006119b78342613149565b90506000805b600454811015611a57576000600482815481106119dc576119dc6130d0565b6000918252602080832090910154808352600290915260409091206001810154919250906001600160a01b0316158015611a2257506006810154600160a81b900460ff16155b8015611a32575084816005015411155b8015611a415750806005015442105b15611a4d576001909301925b50506001016119bd565b5060008167ffffffffffffffff811115611a7357611a736130ba565b604051908082528060200260200182016040528015611aac57816020015b611a99612d10565b815260200190600190039081611a915790505b5090506000805b60045481108015611ac357508382105b15611c0557600060048281548110611add57611add6130d0565b6000918252602080832090910154808352600290915260409091206001810154919250906001600160a01b0316158015611b2357506006810154600160a81b900460ff16155b8015611b33575086816005015411155b8015611b425750806005015442105b15611bf057604080516101208101825282546001600160a01b03908116825260018401548116602083015260028401549282019290925260038301548216606082015260048301546080820152600583015460a0820152600683015460ff808216151560c084015261010080830490941660e0840152600160a81b909104161515918101919091528551869086908110611bde57611bde6130d0565b60209081029190910101526001909301925b50508080611bfd9061315c565b915050611ab3565b509095945050505050565b336001600160a01b037f00000000000000000000000000000000000000000000000000000000000000001614611c585760405162461bcd60e51b81526004016107e290613126565b60405147906001600160a01b037f0000000000000000000000000000000000000000000000000000000000000000169082156108fc029083906000818181858888f19350505050158015611cb0573d6000803e3d6000fd5b50604080518281524260208201526001600160a01b037f000000000000000000000000000000000000000000000000000000000000000016917fbb757047c2b5f3974fe26b7c10f732e7bce710b0952a71082702781e62ae0595910160405180910390a250565b6060600080805b600454811015611d9a57600060048281548110611d3d57611d3d6130d0565b600091825260208083209091015480835260029091526040909120600101549091506001600160a01b0316158015611d85575060008181526002602052604090206005015442105b15611d91576001909201915b50600101611d1e565b50809150808410611ddf576040805160008082526020820190925290611dd6565b611dc3612d10565b815260200190600190039081611dbb5790505b50925050611fac565b6000611deb85836130fc565b905085811115611df85750845b8067ffffffffffffffff811115611e1157611e116130ba565b604051908082528060200260200182016040528015611e4a57816020015b611e37612d10565b815260200190600190039081611e2f5790505b50935060008060005b60045481108015611e6357508382105b15611fa657600060048281548110611e7d57611e7d6130d0565b600091825260208083209091015480835260029091526040909120600101549091506001600160a01b0316158015611ec5575060008181526002602052604090206005015442105b15611f9357888410611f8c5760008181526002602081815260409283902083516101208101855281546001600160a01b0390811682526001830154811693820193909352928101549383019390935260038301548116606083015260048301546080830152600583015460a083015260069092015460ff808216151560c084015261010080830490941660e0840152600160a81b909104161515918101919091528851899085908110611f7a57611f7a6130d0565b60209081029190910101526001909201915b6001909301925b5080611f9e8161315c565b915050611e53565b50505050505b9250929050565b60606000805b60045481101561203557600060048281548110611fd857611fd86130d0565b600091825260208083209091015480835260029091526040909120600101549091506001600160a01b0316158015612020575060008181526002602052604090206005015442105b1561202c576001909201915b50600101611fb9565b5060008167ffffffffffffffff811115612051576120516130ba565b60405190808252806020026020018201604052801561207a578160200160208202803683370190505b5090506000805b60045481101561211b576000600482815481106120a0576120a06130d0565b600091825260208083209091015480835260029091526040909120600101549091506001600160a01b03161580156120e8575060008181526002602052604090206005015442105b156121125780848481518110612100576121006130d0565b60209081029190910101526001909201915b50600101612081565b50909392505050565b6001600160a01b038116600090815260066020526040812060609190815b815481101561219e5760026000838381548110612161576121616130d0565b9060005260206000200154815260200190815260200160002060060160159054906101000a900460ff16612196576001909201915b600101612142565b5060008267ffffffffffffffff8111156121ba576121ba6130ba565b6040519080825280602002602001820160405280156121e3578160200160208202803683370190505b5090506000805b8354811015611c05576000848281548110612207576122076130d0565b6000918252602080832090910154808352600290915260409091206006015490915060ff600160a81b9091041661225d578084848151811061224b5761224b6130d0565b60209081029190910101526001909201915b506001016121ea565b61226e612823565b600f5460ff16156122b65760405162461bcd60e51b815260206004820152601260248201527110dbdb9d1c9858dd081a5cc81c185d5cd95960721b60448201526064016107e2565b600081815260026020526040902080546001600160a01b03166123115760405162461bcd60e51b815260206004820152601360248201527211d85b5948191bd95cc81b9bdd08195e1a5cdd606a1b60448201526064016107e2565b60018101546001600160a01b0316156123625760405162461bcd60e51b815260206004820152601360248201527211d85b5948185b1c9958591e481a9bda5b9959606a1b60448201526064016107e2565b80546001600160a01b031633036123b25760405162461bcd60e51b815260206004820152601460248201527343616e6e6f74206a6f696e206f776e2067616d6560601b60448201526064016107e2565b806002015434146123fc5760405162461bcd60e51b8152602060048201526014602482015273125b98dbdc9c9958dd0818995d08185b5bdd5b9d60621b60448201526064016107e2565b8060050154421061243e5760405162461bcd60e51b815260206004820152600c60248201526b11d85b5948195e1c1a5c995960a21b60448201526064016107e2565b6006810154600160a81b900460ff16156124925760405162461bcd60e51b815260206004820152601560248201527411d85b5948185b1c9958591e481c995cdbdb1d9959605a1b60448201526064016107e2565b600180820180546001600160a01b031916339081179091556000818152600660209081526040808320805460078452828520898652845282852081905595860181558352818320909401869055918152600c909152205460ff1661251757336000908152600c60205260409020805460ff19166001908117909155600b805490910190555b336000818152600d60205260409081902060018082018054909101905560028401546004909101805490910190555183907f48bba6a72d4a9fae48e2469ce99518c38afec785fa4f3df38a1a76b03a979537906125779042815260200190565b60405180910390a36125888261290a565b5061096e6001600055565b60606000805b600454811080156125a957508382105b15612659576000600482815481106125c3576125c36130d0565b6000918252602080832090910154808352600290915260409091206001810154919250906001600160a01b031615801561260957506006810154600160a81b900460ff16155b8015612619575087816002015410155b8015612629575086816002015411155b80156126385750806005015442105b15612644576001909301925b505080806126519061315c565b915050612599565b5060008167ffffffffffffffff811115612675576126756130ba565b6040519080825280602002602001820160405280156126ae57816020015b61269b612d10565b8152602001906001900390816126935790505b5090506000805b600454811080156126c557508382105b15612817576000600482815481106126df576126df6130d0565b6000918252602080832090910154808352600290915260409091206001810154919250906001600160a01b031615801561272557506006810154600160a81b900460ff16155b8015612735575089816002015410155b8015612745575088816002015411155b80156127545750806005015442105b1561280257604080516101208101825282546001600160a01b03908116825260018401548116602083015260028401549282019290925260038301548216606082015260048301546080820152600583015460a0820152600683015460ff808216151560c084015261010080830490941660e0840152600160a81b9091041615159181019190915285518690869081106127f0576127f06130d0565b60209081029190910101526001909301925b5050808061280f9061315c565b9150506126b5565b50909695505050505050565b60026000540361284657604051633ee5aeb560e01b815260040160405180910390fd5b6002600055565b60008181526005602052604081205460045490919061286e906001906130fc565b90508082146128cd5760006004828154811061288c5761288c6130d0565b9060005260206000200154905080600484815481106128ad576128ad6130d0565b600091825260208083209091019290925591825260059052604090208290555b60048054806128de576128de613175565b600082815260208082208301600019908101839055909201909255938152600590935250506040812055565b6000818152600260205260408120906129246001436130fc565b825460018401546002850154604080519440602086018190526bffffffffffffffffffffffff19606095861b8116928701929092529290931b90921660548401526068830191909152426088830152915060009060a80160408051601f198184030181529190528051602090910120905060006129a26002836131a1565b60068501549015915060ff1615158114806129ca5760018501546001600160a01b03166129d6565b84546001600160a01b03165b6003860180546001600160a01b03929092166001600160a01b031990921691909117905560068501805460ff60a81b1916600160a81b179055612a188661284d565b600085600201546002612a2b91906131b5565b90506000612710612a3d600a846131b5565b612a4791906131cc565b600688015490915060009061010090046001600160a01b031615612b7c57612710612a736005856131b5565b612a7d91906131cc565b600689015461010090046001600160a01b0316600090815260036020526040812080549293508392909190612ab3908490613149565b90915550506006880180546001600160a01b036101009182900481166000908152600e60205260408082208054870190558454849004831682528082206001908101805490910190559354935192909304169183156108fc02918491818181858888f19350505050158015612b2c573d6000803e3d6000fd5b506006880154604080518381524260208201528b9261010090046001600160a01b0316917fa3a786b606feee6cfb52ad03c99ec2081ff91049c9fbc4ac92c2e6997f8ab15c910160405180910390a35b600081612b8984866130fc565b612b9391906130fc565b600980546001019055600a8054860190559050600085612bbd5789546001600160a01b0316612bcc565b60018a01546001600160a01b03165b6003808c0180546001600160a01b039081166000908152600d6020526040808220600201805460019081019091559354831682528082206005018054890190558286168252808220909401805490930190925591519293507f00000000000000000000000000000000000000000000000000000000000000009091169186156108fc0291879190818181858888f19350505050158015612c70573d6000803e3d6000fd5b5060038a01546040516001600160a01b039091169083156108fc029084906000818181858888f19350505050158015612cad573d6000803e3d6000fd5b5060038a015460408051891515815260208101859052428183015290516001600160a01b03909216918d917ffd3a3ac0a275ad97ab3bd9b1ebba9bf9d5c881e466d165297b33b8e0c02d85be919081900360600190a35050505050505050505050565b6040805161012081018252600080825260208201819052918101829052606081018290526080810182905260a0810182905260c0810182905260e0810182905261010081019190915290565b600060208284031215612d6e57600080fd5b5035919050565b60008060208385031215612d8857600080fd5b823567ffffffffffffffff811115612d9f57600080fd5b8301601f81018513612db057600080fd5b803567ffffffffffffffff811115612dc757600080fd5b8560208260051b8401011115612ddc57600080fd5b6020919091019590945092505050565b80516001600160a01b0390811683526020808301518216908401526040808301519084015260608083015191821690840152506080810151608083015260a081015160a083015260c0810151612e4660c084018215159052565b5060e0810151612e6160e08401826001600160a01b03169052565b50610100810151612e7761010084018215159052565b505050565b600081518084526020840193506020830160005b82811015612eba57612ea3868351612dec565b610120959095019460209190910190600101612e90565b5093949350505050565b602081526000612ed76020830184612e7c565b9392505050565b80356001600160a01b0381168114612ef557600080fd5b919050565b600060208284031215612f0c57600080fd5b612ed782612ede565b60008060008060808587031215612f2b57600080fd5b8435935060208501358015158114612f4257600080fd5b925060408501359150612f5760608601612ede565b905092959194509250565b600080600060608486031215612f7757600080fd5b612f8084612ede565b95602085013595506040909401359392505050565b604081526000612fa86040830185612e7c565b90508260208301529392505050565b6101208101610ab48284612dec565b600081518084526020840193506020830160005b82811015612eba578151865260209586019590910190600101612fda565b6040808252835190820181905260009060208501906060840190835b8181101561303b5783516001600160a01b0316835260209384019390920191600101613014565b5050838103602085015261304f8186612fc6565b9695505050505050565b6000806040838503121561306c57600080fd5b50508035926020909101359150565b602081526000612ed76020830184612fc6565b6000806000606084860312156130a357600080fd5b505081359360208301359350604090920135919050565b634e487b7160e01b600052604160045260246000fd5b634e487b7160e01b600052603260045260246000fd5b634e487b7160e01b600052601160045260246000fd5b81810381811115610ab457610ab46130e6565b60008161311e5761311e6130e6565b506000190190565b6020808252600990820152682737ba1037bbb732b960b91b604082015260600190565b80820180821115610ab457610ab46130e6565b60006001820161316e5761316e6130e6565b5060010190565b634e487b7160e01b600052603160045260246000fd5b634e487b7160e01b600052601260045260246000fd5b6000826131b0576131b061318b565b500690565b8082028115828204841417610ab457610ab46130e6565b6000826131db576131db61318b565b50049056fea26469706673582212202bd7847cd310b05177f6e5c2108cb95cc1a91c63990428eb23c36f3e61e6e9c164736f6c634300081a0033",
  "linkReferences": {},
  "deployedLinkReferences": {}
}